:020000040800F2
:100000000050002021020008270200082B020008EF
:100010009D020008A1020008E9020008000000009B
:100020000000000000000000000000003103000894
:1000300035030008000000003903000875110008AE
:100040004D0300084D0300084D0300084D03000850
:100050004D0300084D0300084D0300084D03000840
:100060004D0300084D0300084D0300084D03000830
:100070004D0300084D0300084D0300084D03000820
:100080004D0300084D0300084D0300084D03000810
:100090004D0300084D0300084D0300084D03000800
:1000A0004D0300084D0300084D0300084D030008F0
:1000B0004D0300084D0300084D0300084D030008E0
:1000C0004D0300084D0300084D0300084D030008D0
:1000D0004D030008391200084D0300084D030008C5
:1000E0004D0300084D0300084D0300080000000008
:1000F0000000000000000000000000000000000000
:1001000000000000000000005FF808F100B583B0B7
:1001100000F0AAF9304B314A1360314A1360314B79
:10012000314A32498B4204D21168196004330432D7
:10013000F7E72A4B1A682E4B9A4200D0FEE7284B6D
:100140001A682C4B9A42F9D1234B2B4A13602B4A45
:1001500013602B4B02E000221A600433294A9342B9
:10016000F9D3254B1B6813B9244B1B6803B1FEE779
:1001700000F086F9694601A800F022F9224C234BD1
:10018000E41AA4100025AC4214DC214C214BE41AE3
:10019000A4100025AC4213DC0099019801F068F826
:1001A00005461D4C1D4BE41AA410002C0EDC2846FD
:1001B00000F0E2F8154B53F8253098470135E2E797
:1001C000144B53F8253098470135E3E7013C134BB6
:1001D00053F824309847E8E7BABADECA0000002096
:1001E0008800002000000020B01F00088C000020C4
:1001F00078563412325476988C0000202008002063
:100200008C000020240800207803000878030008F0
:1002100078030008780300087803000878030008D2
:1002200008B5FFF773FF00BEFEE71EF0040F0CBF1A
:10023000EFF30880EFF309807146414A10472DE93A
:10024000F04182B004468846124B5E6B9F6B9D6AFC
:100250001B6B13F0020F03D00E4BDB6A002B0CDB81
:100260000D4800F0B5F8CDF800803B4632462946EF
:10027000204600F009F900BEFEE74BF6AB6100F046
:100280007DF90028ECD0034B4FF00042DA6202B057
:10029000BDE8F08100ED00E0FC1D000800BEFEE7B7
:1002A0001EF0040F0CBFEFF30880EFF309807146D6
:1002B000244A10472DE9F04182B004468846084B95
:1002C0005E6B9F6B9D6A074800F082F8CDF8008056
:1002D0003B4632462946204600F0D6F800BEFEE7EF
:1002E00000ED00E00C1E00081EF0040F0CBFEFF341
:1002F0000880EFF309807146134A10472DE9F04159
:1003000082B004468846084B5E6B9F6B9D6A074827
:1003100000F05EF8CDF800803B4632462946204684
:1003200000F0B2F800BEFEE700ED00E0181E000885
:1003300000BEFEE700BEFEE700BEFEE7704700001D
:100340003F020008B5020008FD02000800BEFEE7FB
:10035000B01F0008000000208C000020B01F000823
:1003600000000000000000008C0000202408002095
:08037000000000000000000085
:10037800FEE7000008B503460C4A12685AB10B4A5A
:100388001068033323F003030344094A934206D851
:10039800064A136008BD054A06491160EFE701F0F7
:1003A80045F80C2303604FF0FF30F3E7900000207E
:1003B800004C00202408002001230360014B0B603F
:1003C800704700BF040000200FB400B583B004AB31
:1003D80053F8042B01938021064801F059F80028AE
:1003E80003DD0146034800F037F803B05DF804EB7D
:1003F80004B07047980000202DE9F04385B004460A
:100408000F4643560BB10E461EE0042528462146EA
:10041800ABBE0446384605B0BDE8F08314F9011BAD
:1004280004AA1A4402F8101C0133AB42F6D304AAFA
:100438001344002203F8102C4FF00408E946404604
:100448004946ABBE8046761B002EE3D03546102EBB
:1004580028BF10250023E8E708B5FFF7CDFF08BD42
:1004680008B500F0FDF8024A024B9A6008BD00BFCB
:100478000000000800ED00E008B500F019F908BD1B
:10048800F8B504460D4617461E462748FFF79CFF59
:1004980021682648FFF798FF61682548FFF794FF11
:1004A800A1682448FFF790FFE1682348FFF78CFF15
:1004B80021692248FFF788FF61692148FFF784FF17
:1004C800A1692048FFF780FFE1691F48FFF77CFF1B
:1004D8001E48FFF779FF29461D48FFF775FF1D4C99
:1004E800E16A1D48FFF770FF216B1C48FFF76CFF9E
:1004F800E16B1B48FFF768FF15F0800F0AD115F470
:10050800004F0CD11748FFF75FFF06991648FFF711
:100518005BFFF8BD39461548FFF756FFEFE7314650
:100528001348FFF751FFEDE7E01C0008F01C000836
:10053800001D0008101D0008201D0008301D0008BF
:10054800401D0008501D0008601D0008701D0008AF
:100558007C1D000800ED00E08C1D00089C1D0008B3
:10056800AC1D0008DC1D0008E41D0008BC1D0008C7
:10057800CC1D000883691A888A4201D00020704780
:100588000268033A012A03D80233836101207047C5
:100598000020704782B00023019300932C4A13680F
:1005A80043F4803313602A4B1B6803F40033009331
:1005B800019B01330193009B1BB9019BB3F5A06F0D
:1005C800F1D1234B1B6813F4003F06D0012300939D
:1005D800009B012B04D002B0704700230093F7E77B
:1005E8001C4B1A6842F010021A601A6822F00302C3
:1005F8001A601A6842F002021A60A3F580535A681A
:100608005A605A685A605A6842F480625A605A6856
:1006180022F47C125A605A6842F4E8125A601A6846
:1006280042F080721A600A4B1B6813F0007FFAD000
:10063800074B5A6822F003025A605A6842F00202D5
:100648005A60034B5B6803F00C03082BF9D1C2E72F
:10065800001002400020024008B5FFF79BFF08BDCC
:1006680008B5104B1A6842F001021A6059680E4A20
:100678000A405A601A6822F0847222F480321A60A2
:100688001A6822F480221A605A6822F4FE025A601C
:100698004FF41F029A60FFF7DFFF044B4FF0006230
:1006A8009A6008BD001002400000FFF800ED00E06D
:1006B8001F4B5B6803F00C03042B15D0082B17D0D5
:1006C8001BB11C4B1C4A1A6002E01A4B1A4A1A60EA
:1006D800174B5B68C3F30313184AD35CDAB21549A6
:1006E8000B68D3400B607047124B134A1A60EFE750
:1006F8000F4A53685268C3F38343023312F4803FAE
:100708000AD00B4A526812F4003F0BD00C4A02FB85
:1007180003F3084A1360DBE7094A02FB03F3054ABF
:100728001360D5E7044A02FB03F3024A1360CFE7DC
:10073800001002401C00002000127A000C0000206B
:1007480000093D0010B4012827D018B1022847D06D
:1007580010BC7047072912D90F29F9D8A1F108044C
:10076800E4B2314B5968A4000F20A04021EA0001EF
:100778005960586802FA04F101435960E8E72A4BC6
:10078800186889000F248C4020EA04001860186853
:1007980002FA01F101431960DAE7072912D90F2992
:1007A800D6D8A1F10800C0B2204B596880000F24A8
:1007B800844021EA040159605C6802FA00F121438F
:1007C8005960C5E7194B186889000F248C4020EA46
:1007D80004001860186802FA01F101431960B7E7CC
:1007E800072912D90F29B3D8A1F10803DBB21048A1
:1007F80041689B000F249C4021EA04014160446841
:1008080002FA03F121434160A2E7094B1868890005
:100818000F248C4020EA04001860186802FA01F1DD
:100828000143196094E700BF00080140000C014033
:1008380000100140012817D010B1022827D07047B6
:10084800012A0AD0002A2DD11A48C368012202FAC7
:1008580001F123EA0101C16070471648C36802FA32
:1008680001F11943C1607047012A09D0D2B9124871
:10087800C368012202FA01F123EA0101C16070474D
:100888000D48C36802FA01F11943C1607047012A93
:1008980009D03AB90948C368012202FA01F123EAEA
:1008A8000101C16070470548C36802FA01F11943A4
:1008B800C160704700080140000C01400010014071
:1008C80038B500F0A3FC344B1B78E3B1334B1B78ED
:1008D8000BB93A2823D080F07A03DAB22F4B1B7871
:1008E800DBB2012B1FD02E4B1B78DBB2012B20D0A3
:1008F8002C4B1B78DBB21E2B0ED90023274A137012
:10090800274A137008E0284A1378DBB22749C854ED
:1009180013780133DBB2137000F084FC38BD1F4B31
:1009280001221A70D7E74028DDD11D4B012119702B
:10093800D9E77728DCD036281BD01A4B1B781C49FE
:100948000C78E4B203EB4303C3EB0313194D2B44B8
:100958001A550B780133DBB20B707028C8D100230D
:100968000F4A13700B700F4A13780133DBB2137000
:10097800BEE70C4B1B780E4A1278013A03EB43038F
:10098800C3EB03130B490B440A2199540023034A70
:100998001370034A1370ABE7E6010020310700200B
:1009A80030070020E5010020E40100201C010020A0
:1009B80018010020E80100201A4B1B787BB10020A9
:1009C8001DE0194A0021D1540133DBB2174A1278CD
:1009D800D2B29A42F5D8154B00221A7070470023FC
:1009E800F4E700EB4002C2EB021211490A4400216D
:1009F800D1540133DBB22C2BF3D90130C0B20D4BEB
:100A08001B78DBB2834201D90023F4E70023094AAB
:100A18001370094A1370094A1370094A1370014A7E
:100A280013707047E60100201C010020E40100203B
:100A3800E8010020E501002018010020310700200E
:100A48003007002008B51D4800F0E6FBFFF7B4FFAB
:100A58001B4800F0CFFB1B4800F06EFBFFF7ACFF14
:100A6800194800F0C7FB174800F066FB174B1B78C6
:100A7800043B174AD35CDBB24F2B06D0134B1B78D1
:100A8800033BD35CDBB24B2BE8D1FFF795FF114852
:100A980000F0B0FB0B4800F04FFB0C4B1B78043BFD
:100AA8000B4AD35CDBB24F2B06D0084B1B78033BB9
:100AB800D35CDBB24B2BE8D108BD00BFC9080008E6
:100AC800401F000880841E004C1F0008E40100201D
:100AD8001C010020541F000838B505460C46FFF7D6
:100AE8006BFF0D4800F086FB284600F083FB0B489F
:100AF80000F080FB204600F07DFB094800F07AFBFF
:100B0800084C204600F018FB204600F015FB204654
:100B180000F012FB38BD00BF401E0008381E000858
:100B2800501E0008404B4C0038B505460C46FFF7F0
:100B380043FF094800F05EFB284600F05BFB0748CE
:100B480000F058FB204600F055FB054800F052FB2A
:100B5800044800F0F1FA38BD281E00083C1E0008C1
:100B6800501F0008C0C62D0010B5FFF725FF2E48FE
:100B780000F040FB2D4800F0DFFAFFF71DFF2C487E
:100B880000F038FB2B4C204600F0D6FA204600F047
:100B9800D3FA002301E00133DBB2274AD25CD2B298
:100BA8003A2AF8D10FE025490A8802EB8202500060
:100BB80080B20880204A125D303A0888024492B216
:100BC8000A800133DBB25C1C1B4A125DD2B20D2ACB
:100BD80007D0194A125DD2B20A2AE4D101E00133E2
:100BE800DBB2154AD25CD2B2562AF8D10FE01449CA
:100BF8000A7802EB82025000C0B208700E4A105DFB
:100C08000A7830380244D2B20A700133DBB25C1C75
:100C1800094A125DD2B20D2A04D0074A125DD2B237
:100C28000A2AE4D110BD00BFB41E000820A10700A5
:100C3800C41E0008404B4C001C0100202E07002059
:100C48003207002038B50446FFF7B6FE092C0CD948
:100C5800A4F10A03DBB2592B1ED9204C204600F020
:100C68006BFA204600F068FA38BD1D4800F0C2FA59
:100C78001C4800F061FAFFF79FFE1B4B01221A7017
:100C88001A4800F0B7FA04F13000C0B200F0A8FA30
:100C9800174800F0AFFAE0E7164800F0ABFA16483C
:100CA80000F04AFAFFF788FE0F4B01221A700F482E
:100CB80000F0A0FA114DA5FB0435ED0805F1300050
:100CC80000F08EFA05EB85056800201A3030C0B2B6
:100CD80000F086FA064800F08DFABEE7404B4C005B
:100CE800F01E000820A10700E6010020001F0008F0
:100CF800501F0008301F000840420F00CDCCCCCC5C
:100D080010B50446FFF758FE0F4800F073FA0F4875
:100D180000F012FAFFF750FE0D4800F06BFA04F1EC
:100D28003000C0B200F05CFA0A4800F063FA0A4CDE
:100D3800204600F001FA204600F0FEF9074908486D
:100D4800FFF7F2FE10BD00BF541E000820A10700E7
:100D5800641E0008501F0008404B4C00981E0008F5
:100D68009C1E0008154BDB6813F0010FFAD1134BDA
:100D78001B6913F0800F05D0104B114A5A6002F11D
:100D880088325A600D4B1A6942F002021A618002D9
:100D980000F1006058611A6942F040021A61074B7D
:100DA800DB6813F0010FFAD1044BDA6842F0200235
:100DB800DA601A6922F002021A61704700200240C4
:100DC8002301674510B50A2404E02046FFF7CAFF4F
:100DD8000134E4B23F2CF8D910BD000030B482B021
:100DE800184BDB6813F0010FFAD1164B1B6913F08F
:100DF800800F05D0134B144C5C6004F188345C60A0
:100E080000241AE00F4D2B6943F001032B6131F8E0
:100E18001430ADF8063020F8023B0A4BDB6813F0BB
:100E2800010FFAD1074BDD6845F02005DD601D692B
:100E380025F001051D610134E4B29442E2D302B009
:100E480030BC70470020024023016745014B024A2D
:100E58001A6070470CED00E00003FA053B2805D83E
:100E680000F1604000F5644009010170704700001E
:100E78001F2809D93B2806D82038C0B2012303FA15
:100E880000F0044B18607047012303FA00F0024B8E
:100E98001860704704E100E000E100E00246A0F1BC
:100EA8003003D8B2092802D9A2F13700C0B270477E
:100EB80000231A468B420AD210B4C45C224492B270
:100EC8000133DBB28B42F8D3D0B210BC7047D8B232
:100ED800704700002DE9F04F87B006464078FFF7CD
:100EE800DDFF8146B078FFF7D9FF40EA09195FFABC
:100EF80089F98DF80090F078FFF7D0FF0546307932
:100F0800FFF7CCFF04467079FFF7C8FF0746B079B2
:100F1800FFF7C4FF56494B8840EA03433A0113439D
:100F280043EA042343EA05330B6044EA05148DF8C9
:100F3800014002438DF80220F079FFF7AFFF044625
:100F4800307AFFF7ABFF40EA04108DF80300002465
:100F580039E025464FEA840B0BF10903F05CFFF7F3
:100F68009DFF82460BF10A03F05CFFF797FF80466E
:100F78000BF10B03F05CFFF791FF07460BF10C0B2D
:100F880016F80B00FFF78AFF3B0343EA00231BB266
:100F980043EA08031BB24FEA0A1A43EA0A03354A2E
:100FA80022F814300134E4B2AB1C4AEA080A06AA53
:100FB80002EB430303F818AC6D00053540EA07104F
:100FC800154405F8180C4FEA5905A542C1D819F07F
:100FD800010F37D0A70007F10903F05CFFF75EFFA8
:100FE800804607F10A03F05CFFF758FFA31C40EAAC
:100FF800081006AA02EB430303F8180C07F10B03C9
:10100800F05CFFF74BFF80460C37F05DFFF746FFBB
:101018006400053440EA081006AB1C4404F8180CB8
:1010280009F10501C9B26846FFF742FF0446E8B96D
:101038002A4610490E4B1868FFF7D0FE204607B025
:10104800BDE8F08FA70007F10903F05CFFF726FF62
:1010580080460A37F05DFFF721FF023440EA0810A6
:1010680006AB03EB440404F8180CD9E70224E5E7BF
:10107800200000203407002008B5037A302B03D065
:10108800312B04D0002008BDFFF724FFFBE7012027
:10109800F9E700000E4B5A6842F001025A605A689C
:1010A80022F002025A601A6842F480321A60002361
:1010B800074A126812F4003F04D1064A934201D845
:1010C8000133F5E7024A136823F4002313607047DD
:1010D800001002409F86010001280BD010B10228A1
:1010E80010D070470B484369012202FA01F11943F5
:1010F800416170470748C369012202FA01F11943A7
:10110800C161704703488369012202FA01F119435A
:101118008161704700100240064B1A6822F00402F1
:101128001A601A6822F001021A601A6822F0020294
:101138001A60704710E000E00A4B1860043B1A6818
:1011480042F001021A601A6822F002021A60064B85
:101158001B6813F4803FFAD0034A136823F0010395
:101168001360704714E000E010E000E008B5054B9C
:101178001B689847044B1B781BB9044A1360043A50
:10118800136008BD00080020FC07002018E000E0FC
:10119800124B00221A6045229A60DA6822F48052C3
:1011A800DA60DA6822F48062DA60DA6842F008020B
:1011B800DA60DA6842F00402DA601A6922F48052CE
:1011C8001A611A6922F400521A61DA6842F02002A0
:1011D800DA60DA6842F40052DA6070470038014099
:1011E800034B5860024B1B6813F0400FFAD070474E
:1011F8000038014038B50546002403E0FFF7F0FF4A
:101208000134E4B2285D0028F8D138BD014B586894
:10121800C0B2704700380140014B1860704700BFEA
:101228001C080020014B00221A607047003801405A
:1012380008B5024B1B68984708BD00BF1C08002072
:1012480008B54FF0E023054AC3F8082D044BD3F83E
:101258000438044A1360984708BD00BF00280008F6
:10126800002000080808002070B590B0664B5C8824
:101278001B88012C02D1012B40F0AE80FFF70AFF3A
:1012880002210846FFF728FF0E210220FFF724FF5E
:101298000A2209210020FFF755FA04220A2100201A
:1012A800FFF750FA022200210846FFF74BFA002206
:1012B80001212520FFF7D2FD2520FFF7D9FDFFF7F3
:1012C80067FFFFF7C3FDFFF727FFFFF7BBFB4F499A
:1012D8004F48FFF701FC4F494F48FFF725FC012015
:1012E800FFF70EFDFFF740FC0023ADF804300123A3
:1012F800ADF80630494B1B78ADF80830484B1B88D1
:101308009BB2B3F5584F0ED9012C6AD001220021A7
:101318000846FFF78FFA3F493F48FFF705FC0020D2
:10132800FFF7EEFCFEE7FFF74DFD002633E004EB88
:101338004402C2EB02123B490A44D15C10AA1A4487
:1013480002F8341C0133DBB204EB4402C2EB021294
:1013580034490A44D25CD2B20A2AE8D103A8FFF77A
:101368008BFE314B18701B78DBB2012B0AD02E4B49
:101378001B78DBB2022B05D00134E4B21D2C01D856
:101388002B46E1E7284B1B78DBB2022B11D0013644
:10139800F6B2FFF711FB244B1B7803F0FF0563B986
:1013A8001C491D48FFF7C0FB3046FFF74BFC2C4695
:1013B800E4E71D4B00221A70EBE70920FFF7D2FC87
:1013C800032201A91048FFF709FD12491248FFF747
:1013D800ABFB0020FFF794FCFFF732FF002010B0B2
:1013E80070BD0920FFF7BEFC032201A90648FFF7DC
:1013F800F5FC08490848FFF797FB0020FFF780FC39
:10140800FFF71EFFE1E700BF00240008641F000883
:10141800701F0008981E00089C1E00083207002054
:101428002E070020E801002004080020014B18685E
:10143800704700BF2400002030B51446002C054634
:101448001A469BB005DA8B2303604FF0FF301BB0C0
:1014580030BD4FF40273ADF80C300CBF234604F1D5
:10146800FF33029305934FF6FF7300910491ADF893
:101478000E3069461E9B00F017F9431CBCBF8B2336
:101488002B60002CE3D00022009B1A70DFE70000DD
:1014980007B5009313460A46014603480068FFF75C
:1014A800CBFF03B05DF804FB2400002038B50546E7
:1014B800002940D051F8043C0C1F002BB8BFE41899
:1014C80000F0CEFB1C4A136833B9636014602846E9
:1014D800BDE8384000F0CABBA34208D920682118EB
:1014E8008B4201BF19685B6809182160EDE71A464D
:1014F8005B680BB1A342FAD911685018A0420BD10E
:1015080020680144501883421160E0D118685B6874
:10151800014411605360DAE702D90C232B60D6E747
:10152800206821188B4201BF19685B68091821607F
:1015380063605460CBE738BD10080020F8B5CD1CB7
:1015480025F0030508350C2D38BF0C25002D06465F
:1015580001DBA94203D90C2333600020F8BD00F059
:101568007FFB21490A6814469CB9204F3B6823B980
:101578002146304600F02EFB38602946304600F000
:1015880029FB431C23D10C233046336000F06EFB4B
:10159800E3E723685B1B17D40B2B03D923601C4498
:1015A800256004E06368A2420CBF0B6053603046BC
:1015B80000F05CFB04F10B00231D20F00700C21AA9
:1015C800CCD01B1AA350C9E722466468CCE7C41CD8
:1015D80024F00304A042E3D0211A304600F0FAFABE
:1015E8000130DDD1CFE700BF10080020140800202B
:1015F8002DE9F0478E6882469E420C4690461F466B
:1016080038D88A8912F4906F32D025680969013375
:10161800A5EB010965694B4405EB450505EBD57557
:101628006D109D4238BF1D46530531D52946FFF739
:1016380085FF064650B90C234FF0FF30CAF800303A
:10164800A38943F04003A381BDE8F0874A46216996
:1016580000F0DEFAA38923F4906343F08003A381AA
:1016680026614E4426603E466561A5EB0905A560E6
:10167800BE4200D93E4632464146206800F0D6FABE
:10168800A36800209B1BA360236833442360DBE727
:101698002A4600F0F1FA06460028E1D150462169B1
:1016A800FFF704FFC7E700002DE9F04F98468B8944
:1016B80007461B060D4614469DB00ED50B6963B947
:1016C8004021FFF73BFF2860286120B90C233B60CD
:1016D8004FF0FF30D1E040236B61002309932023B2
:1016E8008DF8293030234FF00109CDF80C80DFF850
:1016F800A4818DF82A3023469A4613F8012B0AB1A3
:10170800252AF9D1BAEB040B0BD05B4622462946B1
:101718003846FFF76DFF013000F0AA80099A5A4455
:1017280009929AF80030002B00F0A28000234FF0B5
:10173800FF32CDE905230AF1010A049307938DF8D6
:1017480053301A935446052214F8011B514800F0EF
:1017580051FA049AD8B9D00644BF20238DF85330E3
:10176800110744BF2B238DF853309AF800302A2BE9
:1017780015D0544600204FF00A0C079A214611F85C
:10178800013B303B092B4ED9B0B1079214E0A0EBD6
:10179800080309FA03F31343A2460493D2E7039B11
:1017A800191D1B680391002BBBBF5B4242F002026C
:1017B80007930793B8BF049223782E2B0CD1637834
:1017C8002A2B35D1039B02341A1D1B680392002B68
:1017D800B8BF4FF0FF330593DFF8BCA00322504693
:1017E800217800F007FA40B14023A0EB0A0003FA81
:1017F80000F0049B01340343049314F8011B0622F0
:1018080026488DF8281000F0F5F9002838D0244B28
:101818001BBB039B073323F0070308330393099B80
:101828003344099367E70C4601200CFB0232A5E715
:1018380000234FF00A0C194601340593204610F88E
:10184800012B303A092A03D9002BC5D00591C3E7EB
:10185800044601230CFB0121F0E703AB00932A4661
:101868003846104B04A9AFF30080421C0646D6D177
:10187800AB895B063FF52CAF09981DB0BDE8F08F2A
:1018880003AB00932A463846064B04A900F07CF8BF
:10189800EBE700BF7B1F0008811F0008851F0008B9
:1018A80000000000F91500082DE9F0471646994692
:1018B8008A680B6907469342B8BF1346336091F8AC
:1018C80043200C46DDF820800AB1013333602368D9
:1018D800990642BF336802333360256815F0060560
:1018E80006D104F1190AE36832689B1AAB4228DC76
:1018F80094F84320131E226818BF012392062DD4A2
:101908004946384604F14302C047013020D02368D5
:10191800E56803F00603042B18BF002532684FF072
:101928000006A36808BFAD1A226908BF25EAE57555
:101938009342C4BF9B1AED181A34B5421AD100203D
:1019480008E00123524649463846C047013003D1D2
:101958004FF0FF30BDE8F0870135C4E73020E118CB
:1019680081F843005A1C94F845102244023382F847
:101978004310C5E70123224649463846C04701308F
:10198800E6D00136D9E700002DE9FF470F7E9146E2
:10199800782F80460C469A460C9D01F1430207D8E1
:1019A800622F0AD8002F00F0D980582F00F0A480A9
:1019B80004F1420584F842703AE0A7F16303152B5D
:1019C800F6D801A151F823F0291A00083D1A000899
:1019D800B9190008B9190008B9190008B919000897
:1019E8003D1A0008B9190008B9190008B919000802
:1019F800B91900084B1B00086D1A00082D1B0008B8
:101A0800B9190008B91900086D1B0008B9190008B0
:101A18006D1A0008B9190008B9190008351B000823
:101A28002B681A1D1B682A6004F1420584F84230AD
:101A38000123A4E020682968060601F104030AD5F9
:101A48000E682B60002E03DA2D23764284F843308B
:101A58000A235E4819E00E6810F0400F2B6018BF8B
:101A680036B2EFE72B682068191D2960010601D5F9
:101A78001E6802E04606FBD51E886F2F0CBF0823A0
:101A88000A235248002184F843106568002DA8BF36
:101A98002168A560A4BF21F0040121600EB9002DC2
:101AA8004DD01546B6FBF3F103FB1167C75D05F88A
:101AB800017D3746BB420E46F4D9082B0BD123686B
:101AC800DE0708D5236961689942DEBF302305F82F
:101AD800013C05F1FF35521B22614B462146404629
:101AE800CDF800A003AAFFF7DFFE01304CD14FF07C
:101AF800FF3004B0BDE8F087344881F845702968A4
:101B0800236851F8046B29601D0614D5DF0744BF0C
:101B180043F0200323601EB9236823F020032360C9
:101B28001023AFE7236843F0200323607823284875
:101B380084F84530E3E7590648BFB6B2E6E71546EC
:101B4800BBE72B682668181D6169286035061B6885
:101B580001D5196002E07006FBD5198000231546EF
:101B68002361BAE72B6800211A1D2A601D68626884
:101B7800284600F03FF808B1401B606063682361A5
:101B8800002384F84330A8E72A464946404623699B
:101B9800D0470130ABD023689B0713D4E068039B80
:101BA8009842B8BF1846A4E7012332464946404642
:101BB800D04701309BD00135E36803995B1AAB42EB
:101BC800F2DCEBE7002504F11906F5E78C1F0008A5
:101BD8009D1F000838B50023054D044608462B60B4
:101BE800FEF7C8FB431C02D12B6803B1236038BD44
:101BF8000C080020034610B5C9B2024493421846A7
:101C080001D1002003E0047801338C42F6D110BDE5
:101C18000A44914200F1FF3300D1704710B511F822
:101C2800014B914203F8014FF9D110BD884210B51C
:101C380001EB020402D98442234607D8431EA1427D
:101C480008D011F8012B03F8012FF8E701460244E8
:101C58008A4200D110BD13F8014D02F8014DF7E793
:101C6800014800F02FB800BF18080020014800F014
:101C78002AB800BF18080020F8B5074614460E46D3
:101C880021B91146BDE8F840FFF758BC22B9FFF763
:101C98000DFC25462846F8BD00F016F8A0420FD2E4
:101CA80021463846FFF74AFC05460028F2D031465F
:101CB8002246FFF7ADFF31463846FFF7F7FBE9E765
:101CC8003546E7E77047704751F8043C181F002B6A
:101CD800BCBF0B58C0187047537461636B206672A1
:101CE800616D653A0A000000205230203D20202511
:101CF8003038580A00000000205231203D202025AD
:101D08003038580A00000000205232203D2020259B
:101D18003038580A00000000205233203D2020258A
:101D28003038580A0000000020523132203D20256A
:101D38003038580A00000000204C52203D20202551
:101D48003038580A00000000205043203D2020254C
:101D58003038580A0000000020505352203D2025FA
:101D68003038580A000000004653522F4641523A74
:101D78000A0000002043465352203D2020253038D9
:101D8800580A00002048465352203D20202530386C
:101D9800580A00002044465352203D202025303860
:101DA800580A00002041465352203D202025303853
:101DB800580A0000204D4D464152203D202530381C
:101DC800580A00002042464152203D202025303844
:101DD800580A00004D6973630A000000204C522F16
:101DE8004558435F52455455524E3D20253038588A
:101DF8000A0000005B486172644661756C745D0A94
:101E0800000000005B4275734661756C745D0A00E2
:101E18005B55736167654661756C745D0A00000007
:101E280041542B43495053544152543D225443503A
:101E3800222C2200222C000041542B43574A4150A7
:101E48005F4355523D220000220D0A0041542B43A6
:101E5800495053454E443D35310D0A0047455420FD
:101E6800687474703A2F2F666F74612E6672656598
:101E78007661722E636F6D2F7363726970742E7042
:101E880068703F646F776E6C6F61643D000000009E
:101E980038300000687474703A2F2F666F74612EA2
:101EA800667265657661722E636F6D0041542B43CF
:101EB800495053454E443D34320D0A00474554209D
:101EC800687474703A2F2F666F74612E6672656538
:101ED8007661722E636F6D2F4D6574614461746114
:101EE8002E7478740D0A000041542B434950534511
:101EF8004E443D34370D0A004745542068747470C9
:101F08003A2F2F666F74612E667265657661722E40
:101F1800636F6D2F7363726970742E7068703F7091
:101F28006167653D0000000041542B43495053450B
:101F38004E443D34380D0A0041542B5253540D0A77
:101F480000000000415445300D0A000041542B4365
:101F5800574D4F44453D310D0A00000031323334AE
:101F680035363738000000004F50504F2041333786
:101F7800667700232D302B2000686C4C006566675F
:101F880045464700303132333435363738394142E7
:101F980043444546003031323334353637383961B9
:061FA8006263646566003F
:101FB0007856341294000020000000000000000059
:101FC00000000000010203040607080900A24A04F9
:101FD00000000008280000200000000000000000B1
:101FE00000000000000000000000000000000000F1
:101FF00000000000000000000000000000000000E1
:1020000000000000000000000000000000000000D0
:1020100000000000000000000000000000000000C0
:1020200000000000000000000000000000000000B0
:0C20300000000000000000003254769810
:040000050800010DE1
:00000001FF
