:020000040800F2
:1028000000500020212A0008272A00082B2A00084F
:102810009D2A0008A12A0008E92A000800000000FB
:10282000000000000000000000000000312B000844
:10283000352B000800000000392B00083D2B000854
:102840004D2B00084D2B00084D2B00084D2B000888
:102850004D2B00084D2B00084D2B00084D2B000878
:102860004D2B00084D2B00084D2B00084D2B000868
:102870004D2B00084D2B00084D2B00084D2B000858
:102880004D2B00084D2B00084D2B00084D2B000848
:102890004D2B00084D2B00084D2B00084D2B000838
:1028A0004D2B00084D2B00084D2B00084D2B000828
:1028B0004D2B00084D2B0008FD3300084D2B000860
:1028C0004D2B00084D2B00084D2B00084D2B000808
:1028D0004D2B00084D2B00084D2B00084D2B0008F8
:1028E0004D2B00084D2B00084D2B00080000000068
:1028F00000000000000000000000000000000000D8
:1029000000000000000000005FF808F100B583B08F
:1029100000F0ACF9304B314A1360314A1360314B4F
:10292000314A03E052F8041B43F8041B2F498B4241
:10293000F8D32A4B1A682E4B9A4200D0FEE7284B58
:102940001A682C4B9A42F9D1234B2B4A13602B4A1D
:1029500013602B4B02E0002243F8042B294A9342D8
:10296000F9D3254B1B6813B9244B1B6803B1FEE751
:1029700000F088F9694601A800F022F9224C234BA7
:10298000E41AA410002504E0204B53F825309847A2
:102990000135AC42F8DC1E4C1E4BE41AA410002595
:1029A00004E01C4B53F8253098470135AC42F8DC65
:1029B0000099019800F09EFD0546174C174BE41A4C
:1029C000A41004E0013C154B53F824309847002C28
:1029D000F8DC284600F0D0F8BABADECA00000020C1
:1029E000C400002000000020683F0008C80000204C
:1029F0007856341232547698C800002078010020AE
:102A0000C80000207C010020782B0008782B0008EB
:102A1000782B0008782B0008782B0008782B00080A
:102A200008B5FFF773FF00BEFEE71EF0040F0CBFF2
:102A3000EFF30880EFF309807146414A10472DE912
:102A4000F04182B004460D46124B5F6BD3F83880DC
:102A50009E6A1B6B13F0020F03D00E4BDB6A002B38
:102A60000BDB0D4800F0B4F8009543463A4631467A
:102A7000204600F00BF900BEFEE74BF6AB6100F01C
:102A80007FF90028EDD0034B4FF00042DA6202B02C
:102A9000BDE8F08100ED00E0083F000800BEFEE761
:102AA0001EF0040F0CBFEFF30880EFF309807146AE
:102AB000244A10472DE9F04182B004460D46084BE8
:102AC0005F6BD3F838809E6A064800F081F8009565
:102AD00043463A463146204600F0D8F800BEFEE7AD
:102AE00000ED00E0183F00081EF0040F0CBFEFF3EC
:102AF0000880EFF309807146134A10472DE9F04131
:102B000082B004460D46084B5F6BD3F838809E6A4E
:102B1000064800F05DF8009543463A4631462046A7
:102B200000F0B4F800BEFEE700ED00E0243F00082E
:102B300000BEFEE700BEFEE700BEFEE770470000F5
:102B40003F2A0008B52A0008FD2A000800BEFEE75B
:102B5000683F000800000020C8000020683F00080F
:102B60000000000000000000C80000207C010020E0
:082B700000000000000000005D
:102B7800FEE7000008B503460C4A12685AB10B4A32
:102B88001068033323F003030344094A934206D829
:102B9800064A136008BD054A06491160EFE700F0D0
:102BA800CBFC0C2303604FF0FF30F3E7CC00002090
:102BB800004C00207C01002001230360014B0B60C6
:102BC800704700BF040000200FB400B583B004AB09
:102BD80053F8042B01938021074800F0DFFC0028FC
:102BE80004DC03B05DF804EB04B07047014602480A
:102BF80000F034F8F5E700BFD80000202DE9F043D5
:102C080085B004460F46435633BB04252846214663
:102C1800ABBE0446384605B0BDE8F08314F901CBD5
:102C280004AA1A4402F810CC0133AB42F6D304AA22
:102C38001344002203F8102C4FF00408E9464046DC
:102C48004946ABBE8046761B002EE3D03546102E93
:102C580028BF10250023E8E70E46F5E708B5FFF77B
:102C6800CDFF08BD08B500F0FDF8024A024B9A6096
:102C780008BD00BF0028000800ED00E008B500F01E
:102C880019F908BDF8B504460D4617461E462748EB
:102C9800FFF79AFF21682648FFF796FF61682548E5
:102CA800FFF792FFA1682448FFF78EFFE1682348E9
:102CB800FFF78AFF21692248FFF786FF61692148EB
:102CC800FFF782FFA1692048FFF77EFFE1691F48EF
:102CD800FFF77AFF1E48FFF777FF29461D48FFF7E1
:102CE80073FF1D4CE16A1D48FFF76EFF216B1C48FE
:102CF800FFF76AFFE16B1B48FFF766FF15F0800FCF
:102D08000AD115F4004F0CD11748FFF75DFF06995B
:102D18001648FFF759FFF8BD39461548FFF754FF25
:102D2800EFE731461348FFF74FFFEDE7EC3D0008AA
:102D3800FC3D00080C3E00081C3E00082C3E000824
:102D48003C3E00084C3E00085C3E00086C3E000813
:102D58007C3E0008883E000800ED00E0983E000830
:102D6800A83E0008B83E0008E83E0008F03E00080B
:102D7800C83E0008D83E000883691A888A4201D0F4
:102D8800002070470268033A012A01D900207047E1
:102D9800023383610120704782B0002301930093BE
:102DA8002C4A136843F4803313602A4B1B6803F4DE
:102DB80000330093019B01330193009B1BB9019BD6
:102DC800B3F5A06FF1D1234B1B6813F4003F06D075
:102DD80001230093009B012B04D002B0704700230D
:102DE8000093F7E71C4B1A6842F010021A601A6841
:102DF80022F003021A601A6842F002021A60A3F570
:102E080080535A685A605A685A605A6842F4806215
:102E18005A605A6822F47C125A605A6842F4E812DE
:102E28005A601A6842F080721A600A4B1B6813F0E5
:102E3800007FFAD0074B5A6822F003025A605A689A
:102E480042F002025A60034B5B6803F00C03082B44
:102E5800F9D1C2E7001002400020024008B5FFF790
:102E68009BFF08BD08B5104B1A6842F001021A60B2
:102E780059680E4A0A405A601A6822F0847222F48D
:102E880080321A601A6822F480221A605A6822F482
:102E9800FE025A604FF41F029A60FFF7DFFF044BEF
:102EA8004FF000629A6008BD001002400000FFF871
:102EB80000ED00E01F4B5B6803F00C03042B15D0FA
:102EC800082B17D01BB11C4B1C4A1A6002E01A4B86
:102ED8001A4A1A60174B5B68C3F30313184AD35C8A
:102EE800DAB215490B68D3400B607047124B134A8E
:102EF8001A60EFE70F4A53685268C3F383430233FB
:102F080012F4803F05D10F4A02FB03F30A4A13600B
:102F1800E0E7084A526812F4003F05D0094A02FB6C
:102F280003F3054A1360D5E7044A02FB03F3024A98
:102F38001360CFE7001002401C00002000127A0046
:102F48000C00002000093D0010B4012829D00228F7
:102F58004CD008B110BC704707290FD8364B1868F9
:102F680089004FF00F0C0CFA01FC20EA0C001860E5
:102F7800186802FA01F101431960EBE70F29E9D853
:102F8800A1F10800C0B22C494C6883000F2098407A
:102F980024EA00004860486802FA03F303434B60E0
:102FA800D8E707290FD8254B186889004FF00F0C70
:102FB8000CFA01FC20EA0C001860186802FA01F10A
:102FC80001431960C6E70F29C4D8A1F10800C0B2AF
:102FD8001A494C6883000F20984024EA0000486092
:102FE800486802FA03F303434B60B3E707290FD895
:102FF800134B186889004FF00F0C0CFA01FC20EAFB
:103008000C001860186802FA01F101431960A1E781
:103018000F299FD8A1F10803DBB2094841689B003A
:103028000F249C4021EA04014160446802FA03F13C
:10303800214341608EE700BF00080140000C0140B9
:103048000010014001281AD002282CD000B1704786
:10305800012A0AD0002AFAD11D48C368012202FABF
:1030680001F123EA0101C160704700F1804000F5D9
:103078008430C36802FA01F11943C1607047012A1C
:103088000AD0002AE3D11348C368012202FA01F1E9
:1030980023EA0101C16070470E48C36802FA01F1D2
:1030A8001943C1607047012A0AD0002ACFD10A48C3
:1030B800C368012202FA01F123EA0101C160C6E7EF
:1030C8000548C36802FA01F11943C160704700BF9F
:1030D80000080140000C01400010014008B5022121
:1030E800084600F0D1F80321022000F0CDF80222B2
:1030F80000210846FFF728FF022201210020FFF7E0
:1031080023FF022211460020FFF71EFF022203219F
:103118000020FFF719FF022208210120FFF714FF02
:10312800022209210120FFF70FFF02220A210120B4
:10313800FFF70AFF02220B210120FFF705FF08BD58
:1031480008B5042207210120FFF7FEFE08BD10B5CF
:10315800044600F0010200210846FFF773FFC4F39C
:10316800400201210020FFF76DFFC4F38002022115
:103178000020FFF767FFC4F3C00203210020FFF718
:1031880061FFC4F3001208210120FFF75BFFC4F3BD
:10319800401209210120FFF755FFC4F380120A21CC
:1031A8000120FFF74FFFE2090B210120FFF74AFF3B
:1031B80010BD08B5002211461046FFF743FF002254
:1031C80001211046FFF73EFF002202211046FFF7BB
:1031D80039FF002203211046FFF734FF002208219F
:1031E8000120FFF72FFF002209210120FFF72AFF06
:1031F80000220A210120FFF725FF00220B210120D0
:10320800FFF720FF08BD00004FF0E023014AC3F894
:103218000C2D70470003FA051F2807D8012303FA6D
:1032280000F04FF0E023C3F8000170473B2808D8AE
:103238002038C0B2012303FA00F04FF0E023C3F8AE
:10324800040170470E4B5A6842F001025A605A68EE
:1032580022F002025A601A6842F480321A6000238F
:10326800074A126812F4003F04D1064A934201D873
:103278000133F5E7024A136823F40023136070470B
:10328800001002409F86010001280ED0022814D0A9
:1032980000B1704700F1804000F504304369012215
:1032A80002FA01F11943416170470848C3690122D4
:1032B80002FA01F11943C161704704488369012288
:1032C80002FA01F119438161E3E700BF00100240EF
:1032D800324B01229A624FF6FF72DA6200225A627A
:1032E8001A611A6822F010021A601A6822F0200285
:1032F8001A601A6822F040021A601A6822F0020264
:103308001A601A6822F004021A601A6822F0800211
:103318001A609A6922F001029A619A6922F00202FF
:103328009A619A6922F008029A619A6942F4807255
:103338009A619A6922F400729A619A6922F4806209
:103348009A619A6922F400629A619A6942F48052F9
:103358009A619A6942F400529A619A6922F4804209
:103368009A619A6922F400429A611A6A42F020022C
:103378001A621A6A42F010021A62DA6842F001020E
:10338800DA60DA6842F00202DA60DA6842F00402CF
:10339800DA601A6842F001021A60704700080040BB
:1033A800014B5862704700BF00080040014B58634A
:1033B800704700BF00080040014B986B80B270470F
:1033C80000080040014B586A80B27047000800406E
:1033D80008B1014A106070476001002008B1014A35
:1033E800106070475801002008B1014A106070470A
:1033F8005C01002008B5154B1B6913F0040F08D0B9
:10340800134B1B689847114A136923F0040313618F
:1034180008BD0E4B1B6913F0010F08D00D4B1B683C
:1034280098470A4A136923F001031361F0E7074B31
:103438001B6913F0020FEBD0074B1B689847034A30
:10344800136923F002031361E2E700BF000800409C
:103458005C0100206001002058010020024A138806
:1034680001331380704700BF6401002008B50020B5
:10347800FFF796FFFFF7A0FF094B1B88C3EB034339
:10348800C0180BD48011074B186080B2FFF78EFF6D
:103498000023034A1380044A137008BD3F30F1E744
:1034A80064010020680100206601002008B5FFF7CC
:1034B80089FF0B4B1B88184480B2FFF777FF094B35
:1034C8001B783F2B08D8084AD05CFFF740FE054A16
:1034D80013780133137008BDFFF76BFEF7E700BFE1
:1034E80068010020660100202000002008B5FFF7D1
:1034F800A9FE00210220FFF7C7FE02210120FFF7E5
:10350800C3FE0A48FFF764FF0948FFF76DFF094843
:10351800FFF764FFFFF7E2FDFFF712FE1E20FFF73B
:103528007BFEFFF771FEFFF7D3FEFEE76534000868
:1035380075340008B5340008014B1868704700BF9F
:103548006000002030B51446002C05461A469BB092
:1035580005DA8B2303604FF0FF301BB030BD4FF40A
:103568000273ADF80C300CBF234604F1FF3302930D
:1035780005934FF6FF7300910491ADF80E3069463C
:103588001E9B00F075F8431CBCBF8B232B60002CDE
:10359800E3D00022009B1A70DFE7000007B5009314
:1035A80013460A46014603480068FFF7CBFF03B0FD
:1035B8005DF804FB600000202DE9F0478E68824624
:1035C8009E420C4690461F4638D88A8912F4906F5E
:1035D80032D0256809690133A5EB010965694B44B7
:1035E80005EB450505EBD5756D109D4238BF1D46A9
:1035F800530531D5294600F04FFB064650B90C2338
:103608004FF0FF30CAF80030A38943F04003A3818C
:10361800BDE8F0874A46216900F0CEFAA38923F471
:10362800906343F08003A38126614E4426603E46A2
:103638006561A5EB0905A560BE4200D93E46324644
:103648004146206800F0C6FAA36800209B1BA360CF
:10365800236833442360DBE72A4600F077FB0646FD
:103668000028E1D15046216900F0CEFAC7E70000F2
:103678002DE9F04F98468B8907461B060D461446E0
:103688009DB00ED50B6963B9402100F005FB286099
:10369800286120B90C233B604FF0FF30D1E0402374
:1036A8006B610023099320238DF8293030234FF0D4
:1036B8000109CDF80C80DFF8A4818DF82A30234663
:1036C8009A4613F8012B0AB1252AF9D1BAEB040B53
:1036D8000BD05B46224629463846FFF76DFF01307E
:1036E80000F0AA80099A5A4409929AF80030002BEF
:1036F80000F0A28000234FF0FF32CDE905230AF144
:10370800010A049307938DF853301A9354460522FF
:1037180014F8011B514800F041FA049AD8B9D006B0
:1037280044BF20238DF85330110744BF2B238DF855
:1037380053309AF800302A2B15D0544600204FF009
:103748000A0C079A214611F8013B303B092B4ED948
:10375800B0B1079214E0A0EB080309FA03F313438E
:10376800A2460493D2E7039B191D1B680391002B03
:10377800BBBF5B4242F0020207930793B8BF0492B3
:1037880023782E2B0CD163782A2B35D1039B023456
:103798001A1D1B680392002BB8BF4FF0FF33059327
:1037A800DFF8BCA003225046217800F0F7F940B1B9
:1037B8004023A0EB0A0003FA00F0049B0134034302
:1037C800049314F8011B062226488DF8281000F0EF
:1037D800E5F9002838D0244B1BBB039B073323F0A3
:1037E800070308330393099B3344099367E70C469F
:1037F80001200CFB0232A5E700234FF00A0C194602
:1038080001340593204610F8012B303A092A03D9D0
:10381800002BC5D00591C3E7044601230CFB012109
:10382800F0E703AB00932A463846104B04A9AFF3E0
:103838000080421C0646D6D1AB895B063FF52CAF0B
:1038480009981DB0BDE8F08F03AB00932A463846AF
:10385800064B04A900F07CF8EBE700BF323F0008F4
:10386800383F00083C3F000800000000C135000850
:103878002DE9F047164699468A680B690746934230
:10388800B8BF1346336091F843200C46DDF820801A
:103898000AB1013333602368990642BF33680233A3
:1038A8003360256815F0060506D104F1190AE368A6
:1038B80032689B1AAB4228DC94F84320131E226816
:1038C80018BF012392062DD44946384604F1430215
:1038D800C047013020D02368E56803F00603042BB5
:1038E80018BF002532684FF00006A36808BFAD1A5C
:1038F800226908BF25EAE5759342C4BF9B1AED18F3
:103908001A34B5421AD1002008E00123524649462C
:103918003846C047013003D14FF0FF30BDE8F0878B
:103928000135C4E73020E11881F843005A1C94F8A7
:1039380045102244023382F84310C5E7012322468A
:1039480049463846C0470130E6D00136D9E700007D
:103958002DE9FF470F7E9146782F80460C469A4600
:103968000C9D01F1430207D8622F0AD8002F00F0FE
:10397800D980582F00F0A48004F1420584F84270E1
:103988003AE0A7F16303152BF6D801A151F823F00B
:10399800F1390008053A0008813900088139000822
:1039A8008139000881390008053A00088139000882
:1039B800813900088139000881390008133B000863
:1039C800353A0008F53A00088139000881390008BD
:1039D800353B000881390008353A0008813900086C
:1039E80081390008FD3A00082B681A1D1B682A60F7
:1039F80004F1420584F842300123A4E020682968D4
:103A0800060601F104030AD50E682B60002E03DABE
:103A18002D23764284F843300A235E4819E00E6865
:103A280010F0400F2B6018BF36B2EFE72B68206804
:103A3800191D2960010601D51E6802E04606FBD55E
:103A48001E886F2F0CBF08230A235248002184F8D0
:103A580043106568002DA8BF2168A560A4BF21F0A8
:103A6800040121600EB9002D4DD01546B6FBF3F1C7
:103A780003FB1167C75D05F8017D3746BB420E465B
:103A8800F4D9082B0BD12368DE0708D523696168B0
:103A98009942DEBF302305F8013C05F1FF35521B82
:103AA80022614B4621464046CDF800A003AAFFF705
:103AB800DFFE01304CD14FF0FF3004B0BDE8F08795
:103AC800344881F845702968236851F8046B2960E7
:103AD8001D0614D5DF0744BF43F0200323601EB939
:103AE800236823F0200323601023AFE7236843F003
:103AF800200323607823284884F84530E3E75906F3
:103B080048BFB6B2E6E71546BBE72B682668181D1E
:103B18006169286035061B6801D5196002E07006E6
:103B2800FBD51980002315462361BAE72B680021CD
:103B38001A1D2A601D686268284600F02FF808B12F
:103B4800401B606063682361002384F84330A8E762
:103B58002A46494640462369D0470130ABD02368FE
:103B68009B0713D4E068039B9842B8BF1846A4E7A4
:103B78000123324649464046D04701309BD00135A3
:103B8800E36803995B1AAB42F2DCEBE7002504F12A
:103B98001906F5E7433F0008543F0008034610B5EF
:103BA800C9B202449342184601D1002003E00478C8
:103BB80001338C42F6D110BD0A44914200F1FF3323
:103BC80000D1704710B511F8014B914203F8014F2D
:103BD800F9D110BD884210B501EB020402D9844224
:103BE800234607D8431EA14208D011F8012B03F839
:103BF800012FF8E7014602448A4200D110BD13F8AC
:103C0800014D02F8014DF7E738B50546002940D0C7
:103C180051F8043C0C1F002BB8BFE41800F0CCF896
:103C28001C4A136833B9636014602846BDE83840FD
:103C380000F0C8B8A34208D9206821188B4201BFF8
:103C480019685B6809182160EDE71A465B680BB1D3
:103C5800A342FAD911685018A0420BD12068014438
:103C6800501883421160E0D118685B680144116004
:103C78005360DAE702D90C232B60D6E720682118B5
:103C88008B4201BF19685B68091821606360546042
:103C9800CBE738BD6C010020F8B5CD1C25F0030535
:103CA80008350C2D38BF0C25002D064601DBA9422E
:103CB80003D90C2333600020F8BD00F07DF82149BA
:103CC8000A6814469CB9204F3B6823B92146304600
:103CD80000F062F838602946304600F05DF8431C71
:103CE80023D10C233046336000F06CF8E3E72368F7
:103CF8005B1B17D40B2B03D923601C44256004E0FD
:103D08006368A2420CBF0B605360304600F05AF85B
:103D180004F10B00231D20F00700C21ACCD01B1A97
:103D2800A350C9E722466468CCE7C41C24F0030406
:103D3800A042E3D0211A304600F02EF80130DDD140
:103D4800CFE700BF6C01002070010020F8B50746DE
:103D580014460E4621B91146BDE8F840FFF79CBF4E
:103D680022B9FFF751FF25462846F8BD00F030F884
:103D7800A0420FD221463846FFF78EFF054600289D
:103D8800F2D031462246FFF717FF31463846FFF793
:103D98003BFFE9E73546E7E738B50023054D04461C
:103DA80008462B60FEF7E6FE431C02D12B6803B1E0
:103DB800236038BDD0000020014800F011B800BFD2
:103DC80074010020014800F00CB800BF7401002005
:103DD80051F8043C181F002BBCBF0B58C018704783
:103DE80070477047537461636B206672616D653A02
:103DF8000A000000205230203D2020253038580A83
:103E080000000000205231203D2020253038580A7B
:103E180000000000205232203D2020253038580A6A
:103E280000000000205233203D2020253038580A59
:103E38000000000020523132203D20253038580A39
:103E480000000000204C52203D2020253038580A20
:103E580000000000205043203D2020253038580A1B
:103E68000000000020505352203D20253038580AC9
:103E7800000000004653522F4641523A0A00000003
:103E88002043465352203D2020253038580A000050
:103E98002048465352203D2020253038580A00003B
:103EA8002044465352203D2020253038580A00002F
:103EB8002041465352203D2020253038580A000022
:103EC800204D4D464152203D20253038580A0000EB
:103ED8002042464152203D2020253038580A000013
:103EE8004D6973630A000000204C522F4558435F08
:103EF80052455455524E3D20253038580A0000008E
:103F08005B486172644661756C745D0A000000006C
:103F18005B4275734661756C745D0A005B5573612D
:103F280067654661756C745D0A00232D302B20008F
:103F3800686C4C006566674546470030313233345B
:103F480035363738394142434445460030313233FB
:0D3F580034353637383961626364656600C0
:103F680078563412D4000020000000000000000041
:103F780000000000010203040607080900A24A0421
:103F8800FF13131313018383FF8383017D839393AB
:103F98007501FF111111FF010303FF030301FF93D3
:103FA80093939301FF1333538D0101010101010123
:103FB80001010101010101010101010101010101E9
:103FC8006400002000000000000000000000000065
:103FD80000000000000000000000000000000000D9
:103FE80000000000000000000000000000000000C9
:103FF80000000000000000000000000000000000B9
:1040080000000000000000000000000000000000A8
:104018000000000000000000000000000000000098
:084028000000000032547698FC
:040000050800290DB9
:00000001FF
