:020000040800F2
:1028000000500020212A0008272A00082B2A00084F
:102810009D2A0008A12A0008E92A000800000000FB
:10282000000000000000000000000000312B000844
:10283000352B000800000000392B00083137000854
:102840004D2B00084D2B00084D2B00084D2B000888
:102850004D2B00084D2B00084D2B00084D2B000878
:102860004D2B00084D2B00084D2B00084D2B000868
:102870004D2B00084D2B00084D2B00084D2B000858
:102880004D2B00084D2B00084D2B00084D2B000848
:102890004D2B00084D2B00084D2B00084D2B000838
:1028A0004D2B00084D2B00084D2B00084D2B000828
:1028B0004D2B00084D2B0008793800084D2B0008DF
:1028C0004D2B00084D2B00084D2B00084D2B000808
:1028D0004D2B0008813900084D2B00084D2B0008B6
:1028E0004D2B00084D2B00084D2B00080000000068
:1028F00000000000000000000000000000000000D8
:1029000000000000000000005FF808F100B583B08F
:1029100000F0AAF9304B314A1360314A1360314B51
:10292000314A32498B4204D21168196004330432AF
:10293000F7E72A4B1A682E4B9A4200D0FEE7284B45
:102940001A682C4B9A42F9D1234B2B4A13602B4A1D
:1029500013602B4B02E000221A600433294A934291
:10296000F9D3254B1B6813B9244B1B6803B1FEE751
:1029700000F086F9694601A800F022F9224C234BA9
:10298000E41AA4100025AC4214DC214C214BE41ABB
:10299000A4100025AC4213DC0099019801F0CEF898
:1029A00005461D4C1D4BE41AA410002C0EDC2846D5
:1029B00000F0E2F8154B53F8253098470135E2E76F
:1029C000144B53F8253098470135E3E7013C134B8E
:1029D00053F824309847E8E7BABADECA000000206E
:1029E000C40000200000002024470008C800002088
:1029F0007856341232547698C8000020A40700207C
:102A0000C8000020A8070020782B0008782B0008B9
:102A1000782B0008782B0008782B0008782B00080A
:102A200008B5FFF773FF00BEFEE71EF0040F0CBFF2
:102A3000EFF30880EFF309807146414A10472DE912
:102A4000F04182B004468846124B5E6B9F6B9D6AD4
:102A50001B6B13F0020F03D00E4BDB6A002B0CDB59
:102A60000D4800F0B5F8CDF800803B4632462946C7
:102A7000204600F009F900BEFEE74BF6AB6100F01E
:102A80007DF90028ECD0034B4FF00042DA6202B02F
:102A9000BDE8F08100ED00E00846000800BEFEE75A
:102AA0001EF0040F0CBFEFF30880EFF309807146AE
:102AB000244A10472DE9F04182B004468846084B6D
:102AC0005E6B9F6B9D6A074800F082F8CDF800802E
:102AD0003B4632462946204600F0D6F800BEFEE7C7
:102AE00000ED00E0184600081EF0040F0CBFEFF3E5
:102AF0000880EFF309807146134A10472DE9F04131
:102B000082B004468846084B5E6B9F6B9D6A0748FF
:102B100000F05EF8CDF800803B463246294620465C
:102B200000F0B2F800BEFEE700ED00E02446000829
:102B300000BEFEE700BEFEE700BEFEE770470000F5
:102B40003F2A0008B52A0008FD2A000800BEFEE75B
:102B50002447000800000020C80000202447000887
:102B60000000000000000000C8000020A8070020AE
:082B700000000000000000005D
:102B7800FEE7000008B503460C4A12685AB10B4A32
:102B88001068033323F003030344094A934206D829
:102B9800064A136008BD054A06491160EFE701F0CF
:102BA80071F80C2303604FF0FF30F3E7CC000020EE
:102BB800004C0020A807002001230360014B0B6094
:102BC800704700BF040000200FB400B583B004AB09
:102BD80053F8042B01938021064801F085F800285A
:102BE80003DD0146034800F037F803B05DF804EB55
:102BF80004B07047D40000202DE9F04385B00446A6
:102C08000F4643560BB10E461EE0042528462146C2
:102C1800ABBE0446384605B0BDE8F08314F9011B85
:102C280004AA1A4402F8101C0133AB42F6D304AAD2
:102C38001344002203F8102C4FF00408E9464046DC
:102C48004946ABBE8046761B002EE3D03546102E93
:102C580028BF10250023E8E708B5FFF7CDFF08BD1A
:102C680008B500F0FDF8024A024B9A6008BD00BFA3
:102C78000028000800ED00E008B500F019F908BDCB
:102C8800F8B504460D4617461E462748FFF79CFF31
:102C980021682648FFF798FF61682548FFF794FFE9
:102CA800A1682448FFF790FFE1682348FFF78CFFED
:102CB80021692248FFF788FF61692148FFF784FFEF
:102CC800A1692048FFF780FFE1691F48FFF77CFFF3
:102CD8001E48FFF779FF29461D48FFF775FF1D4C71
:102CE800E16A1D48FFF770FF216B1C48FFF76CFF76
:102CF800E16B1B48FFF768FF15F0800F0AD115F448
:102D0800004F0CD11748FFF75FFF06991648FFF7E9
:102D18005BFFF8BD39461548FFF756FFEFE7314628
:102D28001348FFF751FFEDE7EC440008FC440008A6
:102D38000C4500081C4500082C4500083C450008C7
:102D48004C4500085C4500086C4500087C450008B7
:102D58008845000800ED00E098450008A8450008EF
:102D6800B8450008E8450008F0450008C8450008CF
:102D7800D845000883691A888A4201D00020704724
:102D88000268033A012A03D802338361012070479D
:102D98000020704782B00023019300932C4A1368E7
:102DA80043F4803313602A4B1B6803F40033009309
:102DB800019B01330193009B1BB9019BB3F5A06FE5
:102DC800F1D1234B1B6813F4003F06D00123009375
:102DD800009B012B04D002B0704700230093F7E753
:102DE8001C4B1A6842F010021A601A6822F003029B
:102DF8001A601A6842F002021A60A3F580535A68F2
:102E08005A605A685A605A6842F480625A605A682E
:102E180022F47C125A605A6842F4E8125A601A681E
:102E280042F080721A600A4B1B6813F0007FFAD0D8
:102E3800074B5A6822F003025A605A6842F00202AD
:102E48005A60034B5B6803F00C03082BF9D1C2E707
:102E5800001002400020024008B5FFF79BFF08BDA4
:102E680008B5104B1A6842F001021A6059680E4AF8
:102E78000A405A601A6822F0847222F480321A607A
:102E88001A6822F480221A605A6822F4FE025A60F4
:102E98004FF41F029A60FFF7DFFF044B4FF0006208
:102EA8009A6008BD001002400000FFF800ED00E045
:102EB8001F4B5B6803F00C03042B15D0082B17D0AD
:102EC8001BB11C4B1C4A1A6002E01A4B1A4A1A60C2
:102ED800174B5B68C3F30313184AD35CDAB215497E
:102EE8000B68D3400B607047124B134A1A60EFE728
:102EF8000F4A53685268C3F38343023312F4803F86
:102F08000AD00B4A526812F4003F0BD00C4A02FB5D
:102F180003F3084A1360DBE7094A02FB03F3054A97
:102F28001360D5E7044A02FB03F3024A1360CFE7B4
:102F3800001002401C00002000127A000C00002043
:102F480000093D0010B4012827D018B1022847D045
:102F580010BC7047072912D90F29F9D8A1F1080424
:102F6800E4B2314B5968A4000F20A04021EA0001C7
:102F78005960586802FA04F101435960E8E72A4B9E
:102F8800186889000F248C4020EA0400186018682B
:102F980002FA01F101431960DAE7072912D90F296A
:102FA800D6D8A1F10800C0B2204B596880000F2480
:102FB800844021EA040159605C6802FA00F1214367
:102FC8005960C5E7194B186889000F248C4020EA1E
:102FD80004001860186802FA01F101431960B7E7A4
:102FE800072912D90F29B3D8A1F10803DBB2104879
:102FF80041689B000F249C4021EA04014160446819
:1030080002FA03F121434160A2E7094B18688900DD
:103018000F248C4020EA04001860186802FA01F1B5
:103028000143196094E700BF00080140000C01400B
:1030380000100140012817D010B1022827D070478E
:10304800012A0AD0002A2DD11A48C368012202FA9F
:1030580001F123EA0101C16070471648C36802FA0A
:1030680001F11943C1607047012A09D0D2B9124849
:10307800C368012202FA01F123EA0101C160704725
:103088000D48C36802FA01F11943C1607047012A6B
:1030980009D03AB90948C368012202FA01F123EAC2
:1030A8000101C16070470548C36802FA01F119437C
:1030B800C160704700080140000C01400010014049
:1030C80001280AD018B102280DD000207047094BFA
:1030D8009868C84000F001007047074B9868C840DE
:1030E80000F001007047054B9868C84000F00100E7
:1030F800704700BF00080140000C0140001001406B
:1031080001280BD010B1022810D070470B48C368B3
:10311800012202FA01F15940C16070470848C368AA
:10312800012202FA01F15940C16070470548C3689D
:10313800012202FA01F15940C160704700080140BC
:10314800000C01400010014010B500F003FC334BA7
:103158001B78CBB1324B1B780BB93A2820D0304BB7
:103168001B78DBB2012B1FD02E4B1B78DBB2012B57
:1031780020D02D4B1B78DBB21E2B0ED90023284AFA
:103188001370284A137008E0284A1378DBB22849DC
:10319800C85413780133DBB2137000F0E7FB10BD9D
:1031A8001F4B01221A70DFE73A28DDD11D4B01229F
:1031B8001A70D9E70D28DCD04C281CD01A4B1B7884
:1031C8001C4A1178C9B203EB4303C3EB03131A4C2F
:1031D8002344585413780133DBB213700A28C8D13A
:1031E8000023104A1370134A13700F4A13780133DF
:1031F800DBB21370BDE70C4B1B780E4A1278013A0C
:1032080003EB4303C3EB03130B490B440A21995403
:103218000023034A1370034A1370AAE7220200200E
:103228006B0700206A0700202102002020020020EE
:103238005801002054010020240200201A4B1B785A
:103248007BB100201DE0194A0021D1540133DBB2C3
:10325800174A1278D2B29A42F5D8154B00221A7042
:1032680070470023F4E700EB4002C2EB0212114959
:103278000A440021D1540133DBB22C2BF3D901309D
:10328800C0B20D4B1B78DBB2834201D90023F4E7AF
:103298000023094A1370094A1370094A1370094A2E
:1032A8001370014A13707047220200205801002051
:1032B80020020020240200202102002054010020C6
:1032C8006B0700206A07002008B51D4800F048FB7E
:1032D800FFF7B4FF1B4800F031FB1B4800F0F0F982
:1032E800FFF7ACFF194800F029FB174800F0E8F990
:1032F800174B1B78043B174AD35CDBB24F2B06D025
:10330800134B1B78033BD35CDBB24B2BE8D1FFF7A5
:1033180095FF114800F012FB0B4800F0D1F90C4B57
:103328001B78043B0B4AD35CDBB24F2B06D0084B0F
:103338001B78033BD35CDBB24B2BE8D108BD00BF45
:10334800513100086046000880841E006C46000861
:1033580020020020580100207446000838B50546B0
:103368000C46FFF76BFF0D4800F0E8FA284600F01E
:10337800E5FA0B4800F0E2FA204600F0DFFA0948C7
:1033880000F0DCFA084C204600F09AF9204600F0DC
:1033980097F9204600F094F938BD00BF4C46000864
:1033A800444600085C460008404B4C0038B50546CA
:1033B8000C46FFF743FF084800F0C0FA284600F023
:1033C800BDFA064800F0BAFA204600F0B7FA0448F9
:1033D80000F0B4FA38BD00BF34460008484600087B
:1033E80070460008154BDB6813F0010FFAD1134B38
:1033F8001B6913F0800F05D0104B114A5A6002F177
:1034080088325A600D4B1A6942F002021A61800232
:1034180000F1006058611A6942F040021A61074BD6
:10342800DB6813F0010FFAD1044BDA6842F020028E
:10343800DA601A6922F002021A617047002002401D
:103448002301674530B482B0184BDB6813F0010FD5
:10345800FAD1164B1B6913F0800F05D0134B144C8F
:103468005C6004F188345C6000241AE00F4D2B691D
:1034780043F001032B6131F81430ADF8063020F821
:10348800023B0A4BDB6813F0010FFAD1074BDD68EA
:1034980045F02005DD601D6925F001051D61013439
:1034A800E4B29442E2D302B030BC7047002002403C
:1034B8002301674508B50221084600F0D1F8032129
:1034C800022000F0CDF8022200210846FFF73AFD5D
:1034D800022201210020FFF735FD022211460020BB
:1034E800FFF730FD022203210020FFF72BFD022207
:1034F80008210120FFF726FD022209210120FFF7FC
:1035080021FD02220A210120FFF71CFD02220B21C6
:103518000120FFF717FD08BD08B504220721012087
:10352800FFF710FD08BD10B5044600F001020021A8
:103538000846FFF77FFDC4F3400201210020FFF792
:1035480079FDC4F3800202210020FFF773FDC4F364
:10355800C00203210020FFF76DFDC4F3001208210B
:103568000120FFF767FDC4F3401209210120FFF78E
:1035780061FDC4F380120A210120FFF75BFDE20917
:103588000B210120FFF756FD10BD08B5002211469A
:103598001046FFF74FFD002201211046FFF74AFDB4
:1035A800002202211046FFF745FD002203211046A4
:1035B800FFF740FD002208210120FFF73BFD002214
:1035C80009210120FFF736FD00220A210120FFF71B
:1035D80031FD00220B210120FFF72CFD08BD000062
:1035E800014B024A1A6070470CED00E00003FA052F
:1035F8001F2809D93B2806D82038C0B2012303FA6E
:1036080000F0044B18607047012303FA00F0024BE6
:103618001860704704E100E000E100E00E4B5A68D2
:1036280042F001025A605A6822F002025A601A688F
:1036380042F480321A600023074A126812F4003FED
:1036480004D1064A934201D80133F5E7024A1368C8
:1036580023F4002313607047001002409F86010086
:1036680001280BD010B1022810D070470B484369CD
:10367800012202FA01F11943416170470748C36901
:10368800012202FA01F11943C161704703488369B5
:10369800012202FA01F119438161704700100240CA
:1036A800064B1A6822F004021A601A6822F0010216
:1036B8001A601A6822F002021A60704710E000E0EF
:1036C8000A4B1860043B1A6842F001021A601A6833
:1036D80022F002021A60064B1B6813F4803FFAD0EE
:1036E800034A136823F001031360704714E000E0F5
:1036F80010E000E0084B1860084B1960084B0122E5
:103708001A70084B1A6842F002021A601A6842F0EE
:1037180001021A60704700BF14E000E07007002043
:103728006C07002010E000E008B5054B1B689847BF
:10373800044B1B781BB9044A1360043A136008BD94
:10374800700700206C07002018E000E0324B0122CF
:103758009A624FF6FF72DA6200225A621A611A6898
:1037680022F010021A601A6822F020021A601A6801
:1037780022F040021A601A6822F002021A601A68DF
:1037880022F004021A601A6822F080021A609A690C
:1037980022F001029A619A6922F002029A619A69FA
:1037A80022F008029A619A6942F480729A619A69D1
:1037B80022F400729A619A6922F480629A619A6985
:1037C80022F400629A619A6942F480529A619A6975
:1037D80042F400529A619A6922F480429A619A6985
:1037E80022F400429A611A6A42F020021A621A6AA6
:1037F80042F010021A62DA6842F00102DA60DA680E
:1038080042F00202DA60DA6842F00402DA601A680A
:1038180042F001021A60704700080040014B5862EC
:10382800704700BF00080040014B5863704700BF55
:1038380000080040014B986B80B2704700080040B8
:10384800014B586A80B270470008004008B1014A2D
:10385800106070477C07002008B1014A106070476B
:103868007407002008B1014A1060704778070020EB
:1038780008B5154B1B6913F0040F08D0134B1B68D0
:103888009847114A136923F00403136108BD0E4BCE
:103898001B6913F0010F08D00D4B1B6898470A4AA3
:1038A800136923F001031361F0E7074B1B6913F059
:1038B800020FEBD0074B1B689847034A136923F0A4
:1038C80002031361E2E700BF000800407807002008
:1038D8007C07002074070020124B00221A60452242
:1038E8009A60DA6822F48052DA60DA6822F4806238
:1038F800DA60DA6842F00802DA60DA6842F0040254
:10390800DA601A6922F480521A611A6922F40052A4
:103918001A61DA6842F02002DA60DA6842F400528A
:10392800DA60704700380140034B5860024B1B684F
:1039380013F0400FFAD070470038014038B50546FB
:10394800002403E0FFF7F0FF0134E4B2285D00280B
:10395800F8D138BD014B5868C0B2704700380140F3
:10396800014B1860704700BF98070020014B0022E8
:103978001A6070470038014008B5024B1B68984729
:1039880008BD00BF98070020024A1388013313803E
:10399800704700BF8007002008B50020FFF73EFFF2
:1039A800FFF748FF094B1B88C3EB0343C0180BD430
:1039B8008011074B186080B2FFF736FF0023034AD7
:1039C8001380044A137008BD3F30F1E780070020D8
:1039D800840700208207002008B5FFF731FF0B4B52
:1039E8001B88184480B2FFF71FFF094B1B783F2B39
:1039F80006D9FFF7CAFD064A13780133137008BDCC
:103A0800044AD05CFFF78FFDF5E700BF840700206C
:103A1800820700202000002008B502490248FFF76D
:103A2800C5FC08BD844600088846000808B5024859
:103A3800FFF784FF08BD00BFB446000808B5FFF7CC
:103A4800FDFB0248FFF77AFF08BD00BFC446000827
:103A58000023312B07D8154AD25CD2B2562A04D09B
:103A68000133DBB2F5E7002000E0012000B9704720
:103A780030B45A1C0D4DAA5C991C6C5C02EB820296
:103A880002EB8202910004EB840254002144C9B283
:103A98000333EB5C0B44DBB23033054A9288DBB26C
:103AA800934201D030BC70470020FBE7580100204A
:103AB8009C07002008B5114B1B88042B06D8DFE8AB
:103AC80003F0030D05101300FFF7A6FF0B4B1B882F
:103AD8001E2B0ED00133094A138008BDFFF7A6FF3D
:103AE800F4E7FFF7ABFFF1E7FFF7B2FF044B1870FD
:103AF800ECE7024B00221A80EFE700BF8A0700209C
:103B08008807002010B5074C012323800920FFF700
:103B180069FC032221460448FFF794FC034B044A3E
:103B28001A6010BD9C070020002400080CED00E07E
:103B38000400FA0510B582B0444B1A88444B1A8029
:103B4800444A12885A80444A12889A80FFF766FDD0
:103B580000210220FFF784FD02210120FFF780FDEC
:103B680004210220FFF77CFD3C48FFF76FFE3C482C
:103B7800FFF778FE3B48FFF76FFEFFF79BFCFFF768
:103B8800CBFC0E210220FFF76BFD0A220921002041
:103B9800FFF7D8F904220A210020FFF7D3F90422FD
:103BA80000210120FFF7CEF902220D211046FFF770
:103BB800C9F901220D210220FFF73CFA2520FFF761
:103BC80017FD1E20FFF714FDFFF786FEFFF708FD1F
:103BD800FFF766FDFFF778FB002410E00133DBB246
:103BE800312B0BD8204AD25CD2B24F2AF6D15A1CBC
:103BF8001D498A5CD2B24B2AF0D101242CB91B4949
:103C08001B48FFF7ABFB0023EAE7FFF79FFD1949C5
:103C18001948FFF76FFD09E0FFF774FF0FE0019BFC
:103C280001330193019A154B9A42F8D900210120DA
:103C3800FFF746FA124B1B782BB10028ECD10D2167
:103C48000220FFF75DFA00230193EBE70024000848
:103C58009C07002002240008042400089139000869
:103C6800A1390008E139000858010020A0460008E1
:103C7800AC460008BD3A000840420F003F420F0022
:103C880088070020014B1868704700BF60000020BB
:103C980030B5141E05469BB0184605DA8B234FF045
:103CA800FF302B601BB030BD4FF40273ADF80C3001
:103CB8000CBF234604F1FF33029305934FF6FF73BD
:103CC80000910491ADF80E3002461E9B69462846C5
:103CD80000F072F8431CBCBF8B232B60002CE1D092
:103CE8000022009B1A70DDE707B5009313460A46C9
:103CF800014603480068FFF7CBFF03B05DF804FBFB
:103D0800600000202DE9F0478E6882469E420C46EE
:103D18009046994637D88A8912F4906F31D0022399
:103D2800256809696F1A656905EB450595FBF3F583
:103D380009F101033B449D4238BF1D46530530D568
:103D4800294600F035FB064650B90C234FF0FF30EA
:103D5800CAF80030A38943F04003A381BDE8F08787
:103D68003A46216900F0B4FAA38923F4906343F03A
:103D78008003A38126613E4426604E466561ED1BA3
:103D8800A5604E4500D94E4632464146206800F0AF
:103D9800AAFAA36800209B1BA36023681E44266020
:103DA800DCE72A4600F05EFB06460028E2D12169DE
:103DB800504600F0B1FAC8E72DE9F04F9DB00393E3
:103DC8008B8980461D060C4616460FD50B696BB9C4
:103DD800402100F0EDFA2060206128B90C23C8F8D2
:103DE80000304FF0FF30C7E04023636100230993A0
:103DF80020238DF8293030234FF0010B8DF82A301D
:103E080037463D4615F8013B0BB1252B3ED1B7EBA4
:103E1800060A0BD05346324621464046FFF772FF4A
:103E2800013000F0A480099B534409933B78002B90
:103E380000F09D8000234FF0FF32CDE90523049365
:103E480007938DF853301A932F46052217F8011B54
:103E58004F4800F02FFA049BD0B9D90644BF20225E
:103E68008DF853201A0744BF2B228DF853202A7847
:103E78002A2A15D02F4600200A25079A394611F814
:103E8800013B303B092B4DD9B8B10FE02F46B8E7BD
:103E98003F4A3D46801A0BFA00F018430490D3E7D6
:103EA800039A111D12680391002A01DB079204E0AE
:103EB800524243F00203079204933B782E2B0CD115
:103EC8007B782A2B33D1039B02371A1D1B68039278
:103ED800002BB8BF4FF0FF3305932E4D03223978DE
:103EE800284600F0E7F938B14023401B03FA00F0F8
:103EF800049B0137034304933978062226487E1C25
:103F08008DF8281000F0D6F9002838D0234B13BBC1
:103F1800039B073323F0070308330393099B4B44A0
:103F280009936DE705FB023201200F46A6E700233F
:103F38000A25194601370593384610F8012B303AFF
:103F4800092A03D9002BC8D00591C6E705FB012132
:103F580001230746F0E703AB00932246104B04A960
:103F68004046AFF30080B0F1FF3F8146D6D1A38928
:103F78005B063FF536AF09981DB0BDE8F08F03AB7F
:103F880000932246064B04A9404600F081F8EAE770
:103F9800F0460008F6460008FA460008000000004F
:103FA8000D3D00082DE9F04791461F468A680B69C8
:103FB80006469342B8BF1346C9F8003091F843202B
:103FC8000C46DDF8208012B10133C9F800302368AF
:103FD800990642BFD9F800300233C9F80030256885
:103FE80015F0060507D104F1190AE368D9F800208D
:103FF8009B1AAB4229DC94F843302268003318BF7F
:10400800012392062ED404F1430239463046C047B4
:10401800013021D02368E56803F00603042B18BF9C
:104028000025D9F800204FF0000908BFAD1AA36891
:10403800226908BF25EAE5759342C4BF9B1AED18AB
:104048001A344D451AD1002008E00123524639465A
:104058003046C047013003D14FF0FF30BDE8F0874C
:104068000135C2E73020E11881F843005A1C94F862
:1040780045102244023382F84310C4E70123224644
:1040880039463046C0470130E6D009F10109D8E782
:104098002DE9F04301F1430C0C46097E85B06E29E9
:1040A8001746064698460C9A00F0B38022D8632932
:1040B80036D00AD8002900F0B980582900F083804A
:1040C80004F1420584F8421032E0642901D06929DC
:1040D800F6D120681368050603F104012AD51B6888
:1040E8001160002B03DA2D225B4284F843206F48CD
:1040F8000A2239E0732900F09D8008D86F2920D062
:104108007029DDD1236843F02003236003E075297B
:1041180017D07829D4D17823654884F8453055E0FC
:10412800136804F14205191D1B68116084F84230B8
:1041380001238CE01B6810F0400F116018BF1BB200
:10414800CFE713682568181D1060280601D51B687D
:1041580002E06806FBD51B886F2914BF0A220822D3
:104168005248002184F843106568002DA560C0F20C
:104178009580216821F004012160002B3DD1002D9C
:1041880040F08E806546082A0BD12368DB0708D5E6
:10419800236962689A42DEBF302305F8013C05F1C5
:1041A800FF35ACEB05032361CDF800803B4603AA3D
:1041B80021463046FFF7F6FE01304DD14FF0FF3073
:1041C80005B0BDE8F083394884F8451013682168C4
:1041D8001D1D1B6815600A060BD5CA0744BF41F0B0
:1041E800200121601BB9226822F0200222601022DF
:1041F800B7E74D0648BF9BB2EFE76546B3FBF2F160
:1042080002FB1133C35C05F8013D0B460029F5D1CB
:10421800B9E713682568181D6169106028061B68CE
:1042280001D5196002E06A06FBD5198000236546AE
:104238002361B9E71368191D11601D6862680021C0
:10424800284600F037F808B1401B606063682361B6
:10425800002384F84330A7E723692A4639463046C5
:10426800C0470130AAD023689B0713D4E068039B9A
:104278009842B8BF1846A3E701234A463946304654
:10428800C04701309AD00135E368039A9B1AAB42C4
:10429800F2DCEBE7002504F11909F5E7002BACD1B6
:1042A800037804F1420584F842306CE701470008BE
:1042B8001247000810B5C9B202449042034601D122
:1042C800002303E01C7801308C42F6D1184610BD5B
:1042D80010B5431E0A44914200D110BD11F8014B9C
:1042E80003F8014FF7E7884210B501EB020307D83E
:1042F800421E99420AD011F8014B02F8014FF8E723
:104308008342F5D98118D21AD34200D110BD13F8CF
:10431800014D01F8014DF7E738B50546002943D0AE
:1043280051F8043C0C1F002BB8BFE41800F0D0F87B
:104338001E4A1368104633B9636014602846BDE806
:10434800384000F0C6B8A3420BD9216862189342DE
:1043580001BF1A685B685218226063600460EDE769
:1043680013465A680AB1A242FAD919685818A042E5
:104378000BD120680144581882421960DED11068B8
:104388005268014419605A60D8E702D90C232B609F
:10439800D4E7206821188A4201BF116852680918B9
:1043A800216062605C60C9E738BD00BF8C070020EF
:1043B80070B5CD1C25F0030508350C2D38BF0C252C
:1043C800002D064601DBA94203D90C2333600020E7
:1043D80070BD00F07DF8214A1468214691B9204C3F
:1043E80023681BB9304600F063F820602946304640
:1043F80000F05EF8431C24D10C233046336000F0F3
:1044080068F8E4E70B685B1B18D40B2B0FD90B601B
:10441800CC18CD50304600F05CF804F10B00231D99
:1044280020F00700C31AD3D05A42E250D0E74B68B5
:104438008C4216BF636013600C46EBE70C46496874
:10444800CCE7C41C24F00304A04205D0211A30464E
:1044580000F02EF80130CFD02560DBE78C07002074
:1044680090070020F8B5074614460E4621B9BDE866
:10447800F8401146FFF79CBF22B9FFF74DFF2546CC
:104488002846F8BD00F026F8A0420FD2214638464B
:10449800FFF78EFF05460028F2D031462246FFF787
:1044A80017FF31463846FFF737FFE9E73546E7E7B4
:1044B80038B50023054C054608462360FEF75AFB2D
:1044C800431C02D1236803B12B6038BD9407002038
:1044D8007047704751F8043C181F002BBCBF0B589D
:1044E800C0187047537461636B206672616D653ADA
:1044F8000A000000205230203D2020253038580A7C
:1045080000000000205231203D2020253038580A74
:1045180000000000205232203D2020253038580A63
:1045280000000000205233203D2020253038580A52
:104538000000000020523132203D20253038580A32
:1045480000000000204C52203D2020253038580A19
:1045580000000000205043203D2020253038580A14
:104568000000000020505352203D20253038580AC2
:10457800000000004653522F4641523A0A000000FC
:104588002043465352203D2020253038580A000049
:104598002048465352203D2020253038580A000034
:1045A8002044465352203D2020253038580A000028
:1045B8002041465352203D2020253038580A00001B
:1045C800204D4D464152203D20253038580A0000E4
:1045D8002042464152203D2020253038580A00000C
:1045E8004D6973630A000000204C522F4558435F01
:1045F80052455455524E3D20253038580A00000087
:104608005B486172644661756C745D0A0000000065
:104618005B4275734661756C745D0A005B55736126
:1046280067654661756C745D0A00000041542B4350
:10463800495053544152543D22544350222C220095
:10464800222C000041542B43574A41505F43555296
:104658003D220000220D0A0041542B5253540D0AEA
:1046680000000000415445300D0A000041542B431E
:10467800574D4F44453D310D0A00000038300000C9
:10468800687474703A2F2F666F74612E6672656550
:104698007661722E636F6D0032633135643531385F
:1046A800000000005265646D6900000041542B430E
:1046B800495053454E443D34320D0A004745542075
:1046C800687474703A2F2F666F74612E6672656510
:1046D8007661722E636F6D2F4D65746144617461EC
:1046E8002E7478740D0A0000232D302B2000686C7E
:1046F8004C006566674546470030313233343536FD
:104708003738394142434445460030313233343535
:0B471800363738396162636465660063
:1047240078563412D0000020000000000000000081
:1047340000000000010203040607080900A24A045D
:10474400FF13131313018383FF8383017D839393E7
:104754007501FF111111FF010303FF030301FF930F
:1047640093939301FF1333538D010101010101015F
:104774000101010101010101010101010101010125
:1047840064000020000000000000000000000000A1
:104794000000000000000000000000000000000015
:1047A4000000000000000000000000000000000005
:1047B40000000000000000000000000000000000F5
:1047C40000000000000000000000000000000000E5
:1047D40000000000000000000000000000000000D5
:0847E400000000003254769839
:040000050800290DB9
:00000001FF
